{
    "contractName": "Trust",
    "abi": [
        {
            "inputs": [
                {
                    "internalType": "address",
                    "name": "",
                    "type": "address"
                }
            ],
            "name": "amounts",
            "outputs": [
                {
                    "internalType": "uint256",
                    "name": "",
                    "type": "uint256"
                }
            ],
            "stateMutability": "view",
            "type": "function"
        },
        {
            "inputs": [],
            "name": "kid",
            "outputs": [
                {
                    "internalType": "address",
                    "name": "",
                    "type": "address"
                }
            ],
            "stateMutability": "view",
            "type": "function"
        },
        {
            "inputs": [
                {
                    "internalType": "address",
                    "name": "",
                    "type": "address"
                }
            ],
            "name": "maturities",
            "outputs": [
                {
                    "internalType": "uint256",
                    "name": "",
                    "type": "uint256"
                }
            ],
            "stateMutability": "view",
            "type": "function"
        },
        {
            "inputs": [],
            "name": "maturity",
            "outputs": [
                {
                    "internalType": "uint256",
                    "name": "",
                    "type": "uint256"
                }
            ],
            "stateMutability": "view",
            "type": "function"
        },
        {
            "inputs": [],
            "name": "withdraw",
            "outputs": [],
            "stateMutability": "nonpayable",
            "type": "function"
        }
    ],
    "bytecode": "608060405234801561001057600080fd5b5061021f806100206000396000f3fe608060405234801561001057600080fd5b50600436106100575760003560e01c8063204f83f91461005c5780633ccfd60b1461007857806355a3b2c1146100825780636607250b146100a2578063bfa51c49146100c2575b600080fd5b61006560035481565b6040519081526020015b60405180910390f35b6100806100ed565b005b6100656100903660046101b9565b60006020819052908152604090205481565b6100656100b03660046101b9565b60016020526000908152604090205481565b6002546100d5906001600160a01b031681565b6040516001600160a01b03909116815260200161006f565b6003544210156101305760405162461bcd60e51b8152602060048201526009602482015268746f6f206561726c7960b81b60448201526064015b60405180910390fd5b6002546001600160a01b0316331461018a5760405162461bcd60e51b815260206004820152601760248201527f6f6e6c79206b696420636f756c642077697468647261770000000000000000006044820152606401610127565b60405133904780156108fc02916000818181858888f193505050501580156101b6573d6000803e3d6000fd5b50565b6000602082840312156101cb57600080fd5b81356001600160a01b03811681146101e257600080fd5b939250505056fea2646970667358221220962d495a0788accd67316dfbdf55bacc5cceb933da6909d1cf41961ba779224364736f6c634300080c0033",
    "sourcePath": "/Users/shanajames/Downloads/Work/project_2/Trust.sol",
    "compiler": {
        "name": "solc",
        "version": "0.8.12+commit.f00d7308"
    },
    "functionHashes": {
        "amounts(address)": "55a3b2c1",
        "kid()": "bfa51c49",
        "maturities(address)": "6607250b",
        "maturity()": "204f83f9",
        "withdraw()": "3ccfd60b"
    },
    "gasEstimates": {
        "creation": {
            "codeDepositCost": "108600",
            "executionCost": "153",
            "totalCost": "108753"
        },
        "external": {
            "amounts(address)": "2498",
            "kid()": "2403",
            "maturities(address)": "2517",
            "maturity()": "2262",
            "withdraw()": "infinite"
        }
    }
}