{
    "contractName": "Trust",
    "abi": [
        {
            "inputs": [
                {
                    "internalType": "address",
                    "name": "kid",
                    "type": "address"
                },
                {
                    "internalType": "uint256",
                    "name": "timeToMaturity",
                    "type": "uint256"
                }
            ],
            "name": "addKid",
            "outputs": [],
            "stateMutability": "payable",
            "type": "function"
        },
        {
            "inputs": [
                {
                    "internalType": "address",
                    "name": "",
                    "type": "address"
                }
            ],
            "name": "amounts",
            "outputs": [
                {
                    "internalType": "uint256",
                    "name": "",
                    "type": "uint256"
                }
            ],
            "stateMutability": "view",
            "type": "function"
        },
        {
            "inputs": [
                {
                    "internalType": "address",
                    "name": "",
                    "type": "address"
                }
            ],
            "name": "maturities",
            "outputs": [
                {
                    "internalType": "uint256",
                    "name": "",
                    "type": "uint256"
                }
            ],
            "stateMutability": "view",
            "type": "function"
        },
        {
            "inputs": [
                {
                    "internalType": "address",
                    "name": "kid",
                    "type": "address"
                }
            ],
            "name": "withdraw",
            "outputs": [],
            "stateMutability": "nonpayable",
            "type": "function"
        }
    ],
    "bytecode": "608060405234801561001057600080fd5b506102de806100206000396000f3fe60806040526004361061003f5760003560e01c806340990e301461004457806351cff8d91461005957806355a3b2c1146100795780636607250b146100b8575b600080fd5b610057610052366004610236565b6100e5565b005b34801561006557600080fd5b50610057610074366004610260565b61012a565b34801561008557600080fd5b506100a6610094366004610260565b60006020819052908152604090205481565b60405190815260200160405180910390f35b3480156100c457600080fd5b506100a66100d3366004610260565b60016020526000908152604090205481565b6001600160a01b038216600090815260208190526040902034905561010a8142610282565b6001600160a01b0390921660009081526001602052604090209190915550565b3360009081526001602052604090205442101561017a5760405162461bcd60e51b8152602060048201526009602482015268746f6f206561726c7960b81b60448201526064015b60405180910390fd5b336000908152602081905260409020546101d65760405162461bcd60e51b815260206004820152601760248201527f6f6e6c79206b696420636f756c642077697468647261770000000000000000006044820152606401610171565b6001600160a01b03811660008181526020819052604080822054905181156108fc0292818181858888f19350505050158015610216573d6000803e3d6000fd5b5050565b80356001600160a01b038116811461023157600080fd5b919050565b6000806040838503121561024957600080fd5b6102528361021a565b946020939093013593505050565b60006020828403121561027257600080fd5b61027b8261021a565b9392505050565b600082198211156102a357634e487b7160e01b600052601160045260246000fd5b50019056fea264697066735822122037b87b741b0d5ad88e849daa42719b752667c9049a954446c58941e4e0e0de9964736f6c634300080c0033",
    "sourcePath": "/Users/shanajames/Downloads/Work/project_2/Trust.sol",
    "compiler": {
        "name": "solc",
        "version": "0.8.12+commit.f00d7308"
    },
    "functionHashes": {
        "addKid(address,uint256)": "40990e30",
        "amounts(address)": "55a3b2c1",
        "maturities(address)": "6607250b",
        "withdraw(address)": "51cff8d9"
    },
    "gasEstimates": {
        "creation": {
            "codeDepositCost": "146800",
            "executionCost": "190",
            "totalCost": "146990"
        },
        "external": {
            "addKid(address,uint256)": "44748",
            "amounts(address)": "2532",
            "maturities(address)": "2551",
            "withdraw(address)": "infinite"
        }
    }
}