{
    "contractName": "Trust",
    "abi": [
        {
            "inputs": [],
            "stateMutability": "nonpayable",
            "type": "constructor"
        },
        {
            "inputs": [
                {
                    "internalType": "address",
                    "name": "kid",
                    "type": "address"
                },
                {
                    "internalType": "uint256",
                    "name": "timeToMaturity",
                    "type": "uint256"
                }
            ],
            "name": "addKid",
            "outputs": [],
            "stateMutability": "payable",
            "type": "function"
        },
        {
            "inputs": [],
            "name": "admin",
            "outputs": [
                {
                    "internalType": "address",
                    "name": "",
                    "type": "address"
                }
            ],
            "stateMutability": "view",
            "type": "function"
        },
        {
            "inputs": [
                {
                    "internalType": "address",
                    "name": "",
                    "type": "address"
                }
            ],
            "name": "amounts",
            "outputs": [
                {
                    "internalType": "uint256",
                    "name": "",
                    "type": "uint256"
                }
            ],
            "stateMutability": "view",
            "type": "function"
        },
        {
            "inputs": [
                {
                    "internalType": "address",
                    "name": "",
                    "type": "address"
                }
            ],
            "name": "kids",
            "outputs": [
                {
                    "internalType": "uint256",
                    "name": "amount",
                    "type": "uint256"
                },
                {
                    "internalType": "uint256",
                    "name": "maturity",
                    "type": "uint256"
                },
                {
                    "internalType": "bool",
                    "name": "paid",
                    "type": "bool"
                }
            ],
            "stateMutability": "view",
            "type": "function"
        },
        {
            "inputs": [
                {
                    "internalType": "address",
                    "name": "",
                    "type": "address"
                }
            ],
            "name": "maturities",
            "outputs": [
                {
                    "internalType": "uint256",
                    "name": "",
                    "type": "uint256"
                }
            ],
            "stateMutability": "view",
            "type": "function"
        },
        {
            "inputs": [
                {
                    "internalType": "address",
                    "name": "",
                    "type": "address"
                }
            ],
            "name": "paid",
            "outputs": [
                {
                    "internalType": "bool",
                    "name": "",
                    "type": "bool"
                }
            ],
            "stateMutability": "view",
            "type": "function"
        },
        {
            "inputs": [],
            "name": "withdraw",
            "outputs": [],
            "stateMutability": "nonpayable",
            "type": "function"
        }
    ],
    "bytecode": "608060405234801561001057600080fd5b50600480546001600160a01b03191633179055610514806100326000396000f3fe6080604052600436106100705760003560e01c806355a3b2c11161004e57806355a3b2c1146101005780636607250b1461013b578063a340cf7914610168578063f851a440146101a857600080fd5b80632438628c146100755780633ccfd60b146100d657806340990e30146100ed575b600080fd5b34801561008157600080fd5b506100b461009036600461046c565b60006020819052908152604090208054600182015460029092015490919060ff1683565b6040805193845260208401929092521515908201526060015b60405180910390f35b3480156100e257600080fd5b506100eb6101e0565b005b6100eb6100fb36600461048e565b61030f565b34801561010c57600080fd5b5061012d61011b36600461046c565b60016020526000908152604090205481565b6040519081526020016100cd565b34801561014757600080fd5b5061012d61015636600461046c565b60026020526000908152604090205481565b34801561017457600080fd5b5061019861018336600461046c565b60036020526000908152604090205460ff1681565b60405190151581526020016100cd565b3480156101b457600080fd5b506004546101c8906001600160a01b031681565b6040516001600160a01b0390911681526020016100cd565b33600090815260208190526040902060018101544210156102345760405162461bcd60e51b8152602060048201526009602482015268746f6f206561726c7960b81b60448201526064015b60405180910390fd5b80546102825760405162461bcd60e51b815260206004820152601760248201527f6f6e6c79206b696420636f756c64207769746864726177000000000000000000604482015260640161022b565b600281015460ff16156102c85760405162461bcd60e51b815260206004820152600e60248201526d7061696420616c7265616479202160901b604482015260640161022b565b33600081815260036020526040808220805460ff191660011790558354905181156108fc0292818181858888f1935050505015801561030b573d6000803e3d6000fd5b5050565b6004546001600160a01b031633146103565760405162461bcd60e51b815260206004820152600a60248201526937b7363c9030b236b4b760b11b604482015260640161022b565b33600090815260016020526040902054156103a75760405162461bcd60e51b81526020600482015260116024820152701ada5908185b1c9958591e48195e1a5cdd607a1b604482015260640161022b565b6001600160a01b0382166000908152600160209081526040918290203490819055825160608101909352825281016103df83426104b8565b8152600060209182018190526001600160a01b03851681528082526040908190208351815591830151600183015591909101516002909101805460ff191691151591909117905561043081426104b8565b6001600160a01b0390921660009081526002602052604090209190915550565b80356001600160a01b038116811461046757600080fd5b919050565b60006020828403121561047e57600080fd5b61048782610450565b9392505050565b600080604083850312156104a157600080fd5b6104aa83610450565b946020939093013593505050565b600082198211156104d957634e487b7160e01b600052601160045260246000fd5b50019056fea2646970667358221220181011d988afe085f8732bfdc0994cd673a50b78a36294245b547b4236e9775864736f6c634300080c0033",
    "sourcePath": "/Users/shanajames/Downloads/Work/project_2/Trust.sol",
    "compiler": {
        "name": "solc",
        "version": "0.8.12+commit.f00d7308"
    },
    "functionHashes": {
        "addKid(address,uint256)": "40990e30",
        "admin()": "f851a440",
        "amounts(address)": "55a3b2c1",
        "kids(address)": "2438628c",
        "maturities(address)": "6607250b",
        "paid(address)": "a340cf79",
        "withdraw()": "3ccfd60b"
    },
    "gasEstimates": {
        "creation": {
            "codeDepositCost": "260000",
            "executionCost": "24535",
            "totalCost": "284535"
        },
        "external": {
            "addKid(address,uint256)": "infinite",
            "admin()": "2403",
            "amounts(address)": "2519",
            "kids(address)": "6799",
            "maturities(address)": "2541",
            "paid(address)": "2575",
            "withdraw()": "infinite"
        }
    }
}