{
    "contractName": "Trust",
    "abi": [
        {
            "inputs": [
                {
                    "internalType": "address",
                    "name": "_kid",
                    "type": "address"
                },
                {
                    "internalType": "uint256",
                    "name": "timeToMaturity",
                    "type": "uint256"
                }
            ],
            "stateMutability": "payable",
            "type": "constructor"
        },
        {
            "inputs": [],
            "name": "kid",
            "outputs": [
                {
                    "internalType": "address",
                    "name": "",
                    "type": "address"
                }
            ],
            "stateMutability": "view",
            "type": "function"
        },
        {
            "inputs": [],
            "name": "maturity",
            "outputs": [
                {
                    "internalType": "uint256",
                    "name": "",
                    "type": "uint256"
                }
            ],
            "stateMutability": "view",
            "type": "function"
        },
        {
            "inputs": [],
            "name": "withdraw",
            "outputs": [],
            "stateMutability": "nonpayable",
            "type": "function"
        }
    ],
    "bytecode": "608060405260405161025d38038061025d83398101604081905261002291610055565b61002c814261008f565b60015550600080546001600160a01b0319166001600160a01b03929092169190911790556100b5565b6000806040838503121561006857600080fd5b82516001600160a01b038116811461007f57600080fd5b6020939093015192949293505050565b600082198211156100b057634e487b7160e01b600052601160045260246000fd5b500190565b610199806100c46000396000f3fe608060405234801561001057600080fd5b50600436106100415760003560e01c8063204f83f9146100465780633ccfd60b14610062578063bfa51c491461006c575b600080fd5b61004f60015481565b6040519081526020015b60405180910390f35b61006a610097565b005b60005461007f906001600160a01b031681565b6040516001600160a01b039091168152602001610059565b6001544210156100da5760405162461bcd60e51b8152602060048201526009602482015268746f6f206561726c7960b81b60448201526064015b60405180910390fd5b6000546001600160a01b031633146101345760405162461bcd60e51b815260206004820152601760248201527f6f6e6c79206b696420636f756c6420776974686472617700000000000000000060448201526064016100d1565b60405133904780156108fc02916000818181858888f19350505050158015610160573d6000803e3d6000fd5b5056fea2646970667358221220e3eb0953811f263ba4f2ffea2bef1a4cb414bc383946ce684667a7408988f0a264736f6c634300080c0033",
    "sourcePath": "/Users/shanajames/Downloads/Work/project_2/Trust.sol",
    "compiler": {
        "name": "solc",
        "version": "0.8.12+commit.f00d7308"
    },
    "functionHashes": {
        "kid()": "bfa51c49",
        "maturity()": "204f83f9",
        "withdraw()": "3ccfd60b"
    },
    "gasEstimates": {
        "creation": {
            "codeDepositCost": "81800",
            "executionCost": "infinite",
            "totalCost": "infinite"
        },
        "external": {
            "kid()": "2359",
            "maturity()": "2262",
            "withdraw()": "infinite"
        }
    }
}